:020000040800F2
:10000000880B002089010008D9270008DB27000899
:10001000DF270008E3270008E727000800000000AA
:10002000000000000000000000000000EB270008B6
:10003000ED27000800000000EF270008F127000866
:10004000A3010008A3010008A3010008A301000800
:10005000A3010008A3010008A3010008A3010008F0
:10006000A3010008A3010008A3010008A3010008E0
:10007000A3010008A3010008A3010008A3010008D0
:10008000A3010008A3010008A3010008A3010008C0
:10009000A3010008A3010008A3010008A3010008B0
:1000A000A3010008A3010008A3010008A3010008A0
:1000B000C730000811260008A3010008A3010008AA
:1000C000A3010008A3010008A3010008A301000880
:1000D000A3010008C92A000837470008A742000802
:1000E000A3010008A3010008A301000800F002F822
:1000F00000F03AF80AA090E8000C82448344AAF188
:100100000107DA4501D100F02FF8AFF2090EBAE885
:100110000F0013F0010F18BFFB1A43F0010318473B
:10012000904B0000B04B0000103A24BF78C878C153
:10013000FAD8520724BF30C830C144BF04680C60ED
:10014000704700000023002400250026103A28BF35
:1001500078C1FBD8520728BF30C148BF0B60704739
:100160001FB51FBD10B510BD04F092FB1146FFF77F
:10017000F7FF02F0D7F804F0B0FB03B4FFF7F2FF8B
:1001800003BC04F0B7FB000009488047094800475A
:10019000FEE7FEE7FEE7FEE7FEE7FEE7FEE7FEE737
:1001A000FEE7FEE704480549054A064B7047000094
:1001B000D3280008ED00000888050020880B0020E7
:1001C000880700208807002031490143314A116027
:1001D000704770B5002100230F22C47804B32D4C62
:1001E000246804F4E064C4F5E064210AC1F1040366
:1001F000CA40447804FA03F1847814402143090189
:10020000254C0678A155047804F01F050124AC4064
:1002100005786D11AD0005F1E025C5F8004109E054
:10022000047804F01F050124AC401C4D06787611BB
:1002300045F8264070BD1A4A0A400243154B1B1F61
:100240001A60704739B1134A121D12680243114BEC
:100250001B1D1A6006E00F4A121D126882430D4BE7
:100260001B1D1A607047042808D14FF0E02109696E
:1002700041F004014FF0E022116107E04FF0E0216E
:10028000096921F004014FF0E0221161704700007C
:100290000000FA050CED00E000E400E080E100E081
:1002A00080FFFF1F10B50446FA48844208D101219F
:1002B000401500F055FD0021601500F051FD17E0DC
:1002C000F548844208D10121001500F049FD0021C4
:1002D000201500F045FD0BE0F048844208D10121D3
:1002E000C80300F03DFD00214FF4004000F038FD50
:1002F00010BD30B50246002000235068E84C204075
:100300000D790C6844EA0524204350609068E54C60
:100310002040D1E902542C434D7944EA450420435E
:100320009060D06A20F470000C7C641EE4B2234319
:1003300040EA0350D06230BD00210160017141717B
:100340008160C16001210174704721B1826842F06F
:100350000102826003E0826822F00102826070473D
:1003600021B1826842F48072826003E0826822F4E4
:1003700080728260704710B50023CBB21AB1446816
:100380001C43446002E044689C43446010BD8168A3
:1003900041F0080181607047014600208A6802F040
:1003A00008020AB1012000E000207047816841F096
:1003B000040181607047014600208A6802F004024F
:1003C0000AB1012000E00020704721B1826842F4A8
:1003D000A002826003E0826822F4A002826070477B
:1003E000014600208A6802F480020AB1012000E080
:1003F0000020704710B50A4600210023416821F40F
:100400006041531E41EA4331416010BD21B1426851
:1004100042F40062426003E0426822F400624260FB
:100420007047F0B504460D4600200021092D11DD6E
:10043000E068A5F10A0606EB4607072606FA07F16B
:100440008843A5F10A0606EB460603FA06F10843BF
:10045000E0600CE0206905EB4507072606FA07F186
:10046000884305EB450603FA06F108432061072A95
:100470000FDA606B561E06EB86071F2606FA07F199
:100480008843561E06EB860605FA06F108436063AC
:1004900022E00D2A0FDA206BD61F06EB86071F26F7
:1004A00006FA07F18843D61F06EB860605FA06F121
:1004B0000843206310E0E06AA2F10D0606EB860710
:1004C0001F2606FA07F18843A2F10D0606EB860601
:1004D00005FA06F10843E062F0BD21B1826842F4FA
:1004E0008012826003E0826822F48012826070478A
:1004F0000146C86C80B2704766484C30006870474F
:1005000021B1426842F48062426003E0426822F412
:1005100080624260704721B1426842F4805242607A
:1005200003E0426822F48052426070470A4600218C
:10053000816821F4E04111438160704721B18268F4
:1005400042F40042826003E0826822F4004282604A
:10055000704721B1826842F40212826003E082682F
:1005600022F4021282607047014600208A6802F479
:1005700000120AB1012000E000207047F0B50446E7
:100580001546002000220026092911DDE068A1F1AE
:100590000A0707EB470C072707FA0CF29043A1F173
:1005A0000A0707EB470703FA07F21043E0600CE085
:1005B000206901EB410C072707FA0CF2904301EB8D
:1005C000410703FA07F210432061A06BC0F3015604
:1005D000EF1C06F1010CA7EB0C0707EB870C1F279C
:1005E00007FA0CF29043EF1C06F1010CA7EB0C0785
:1005F00007EB870701FA07F21043A063F0BD10B5BF
:100600000A4600210023816B21F44011531E41EA68
:100610000351816310BD08B5002300930090009B37
:100620000B440093009B1A6008BD08B502460020E9
:100630000090009201F12800009B1844009000985F
:10064000006880B208BD0A4600214168164B194077
:100650001143416070474162826270470A4600213F
:10066000416821F01F0111434160704740B10949C1
:100670000831096841F40001064A0832116007E0B8
:1006800004490831096821F40001024A0832116066
:10069000704700000024014000280140003C014058
:1006A000FFFEF0FFFDF7F1FFFFFD3FFF02460020D8
:1006B00013680B400BB1012000E000207047CA43D3
:1006C0000260704770B502460020002300240B1220
:1006D0005568CEB205EA060415681D4015B10CB187
:1006E000012000E0002070BD00220A12D343036005
:1006F0007047000010B50446CC48844208D101215F
:10070000042000F02DFB0021042000F029FB46E02E
:10071000C748844208D10121082000F021FB0021B4
:10072000082000F01DFB3AE0C248844208D10121B4
:10073000102000F015FB0021102000F011FB2EE02E
:10074000BD48844208D10121202000F009FB00218E
:10075000202000F005FB22E0B848844208D10121A6
:10076000402000F0FDFA0021402000F0F9FA16E0E8
:10077000B348844208D10121802000F0F1FA002121
:10078000802000F0EDFA0AE0AE48844207D1012152
:10079000801500F0E5FA0021A01500F0E1FA10BD87
:1007A00010B50121084600F0DBFA0021012000F01D
:1007B000D7FA10BD2DE9F0410246002500260020A1
:1007C00000230024002791F803C00CF00F0591F8D6
:1007D00003C00CF0100CBCF1000F03D091F802C064
:1007E0004CEA050591F800C0BCF1000F31D0146847
:1007F00000202BE04FF0010C0CFA00F3B1F800C020
:100800000CEA03069E4220D183004FF00F0C0CFA35
:1008100003F7BC4305FA03FC4CEA040491F803C057
:10082000BCF1280F06D14FF0010C0CFA00FCC2F805
:1008300014C00AE091F803C0BCF1480F05D14FF095
:10084000010C0CFA00FCC2F810C0401C0828D1D3DF
:100850001460B1F800C0BCF1FF0F34DD5468002013
:100860002EE000F1080C4FF0010808FA0CF3B1F883
:1008700000C00CEA03069E4221D183004FF00F0C0A
:100880000CFA03F7BC4305FA03FC4CEA040491F8A4
:1008900003C0BCF1280F05D100F1080C08FA0CF8D0
:1008A000C2F8148091F803C0BCF1480F07D100F1E1
:1008B000080C4FF0010808FA0CF8C2F81080401C30
:1008C0000828CED35460BDE8F0814FF6FF71018057
:1008D000022181700421C170704702460020936894
:1008E0000B400BB1012000E00020704701468868F2
:1008F00080B2704702460020D3680B400BB1012044
:1009000000E0002070470146C86880B2704701616E
:100910007047416170470AB1016100E04161704771
:10092000C16070474FF480320A4382618161826105
:1009300082698269704702460020434B18684FF66F
:100940008073184040EA021008433F4B186070471C
:100950003E49C8617047F0B50A46002300240021D3
:10096000002500F00046B6F1004F02D1364EF16985
:1009700001E0354E7168C0F3034583B200F44016C0
:10098000B6F5401F08D121F070612F4E766826F031
:1009900070662D4F7E6012E000F48016B6F5801F61
:1009A00006D1032606FA05F4A14341F0706106E082
:1009B000460D360103FA06F6B14341F0706122B1EB
:1009C000460D360103FA06F6314300F00046B6F153
:1009D000004F02D11C4EF16101E01B4E7160F0BD71
:1009E00030B500228B071C0F0F2303FA04F2164BBD
:1009F00008338C1053F824309343134C08348D1073
:100A000044F8253023468C1053F824308C07240FEB
:100A100000FA04F423430C4C08348D1044F82530BC
:100A200030BD0A49DC310860704700000008014011
:100A3000000C01400010014000140140001801406A
:100A4000001C014000200140000001400000204245
:100A5000DF48006840F00100DD4908600846406852
:100A6000DC490840DA49486008460068DA4908402D
:100A7000D74908600846006820F4802008600846CE
:100A8000406820F4FE0048604FF41F008860704703
:100A9000CF49096821F48031CD4A116011460968B7
:100AA00021F480211160B0F5803F03D0B0F5802F94
:100AB0000ED106E0C649096841F48031C44A11608C
:100AC00007E0C349096841F4A021C14A116000E070
:100AD00000BF00BF704710B5014600220023002070
:100AE0004A11012A02D1BA4C236806E0022A02D137
:100AF000B74C236A01E0B64C636A01F01F0201247F
:100B000094401C400CB1012000E0002010BD38B51D
:100B1000002000900024002500BF3120FFF7DBFFFC
:100B200005460098401C00900098B0F5A06F01D0D9
:100B3000002DF2D03120FFF7CEFF08B1012400E0F4
:100B40000024204638BD01460020A14A106820F04C
:100B5000F80040EAC10010607047A0490860704783
:100B6000024600209A4B586820F47C1042EA0103A8
:100B70001843974B5860704798490866704701467C
:100B80000020934A506820F00300084350607047EB
:100B90008F48406800F00C007047014600208C4AE6
:100BA000506820F0F0000843506070470146002074
:100BB000874A506820F4E06008435060704701465F
:100BC0000020834A506820F4605040EAC100506021
:100BD000704729B17E4A527A02437D4B5A7204E033
:100BE0007B4A527A82437A4B5A7270477B49D8319A
:100BF0000860704701460020754A506820F4404064
:100C00000843506070470021714A20321170704AC9
:100C100082F82010012802D004280AD104E0012122
:100C20006B4A2032117005E00521694A20321170AB
:100C300000E000BF00BF7047694908607047644921
:100C4000096A0143624A1162704765494439086084
:100C5000704730B500210022002400235C4D6D68F0
:100C600005F00C0121B1042905D0082923D105E0A4
:100C70005C4D056022E05B4D05601FE0544D6D68E2
:100C800005F47012524D6D6805F48034022505EBB1
:100C900092421CB9544D554305600BE04C4D6D68B4
:100CA00005F400351DB1504D5543056002E04D4D32
:100CB0005543056002E04B4D056000BF00BF444D49
:100CC0006D6805F0F0010909484D6B5C0568DD4071
:100CD00045603F4D6D6805F4E061090A434D6B5C6A
:100CE0004568DD4085603A4D6D6805F46051C90A7C
:100CF0003E4D6B5C4568DD40C560354D6D6805F463
:100D00004041890B3A4D6B5CC568B5FBF3F5056155
:100D100030BD29B12E4A526902432D4B5A6104E07D
:100D20002B4A526982432A4B5A61704729B1284A9B
:100D300092690243264B9A6104E0254A92698243F4
:100D4000234B9A61704729B1214AD2690243204B53
:100D5000DA6104E01E4AD26982431D4BDA617047B2
:100D600029B11B4AD2680243194BDA6004E0184AE1
:100D7000D2688243164BDA60704729B1144A12696F
:100D80000243134B1A6104E0114A12698243104B6B
:100D90001A61704712494039086070470F49C864AA
:100DA00070470B49C87170470948406A40F080702D
:100DB00007494862704701460020054A92680A4088
:100DC0000AB1012000E00020704701498872704795
:100DD000001002400000FFF8FFFFF6FE0000424254
:100DE0008004424200127A0000093D000000002009
:100DF0001000002010B50446BE48844208D10121ED
:100E00008014FFF7ADFF0021A014FFF7A9FF16E043
:100E1000B948844208D101210014FFF7AEFF002138
:100E20002014FFF7AAFF0AE0B448844207D1012149
:100E3000C013FFF7A2FF0021E013FFF79EFF10BDD4
:100E400010B50022028802F441520B884C882343DB
:100E50008C882343CC8823430C8923434C89234328
:100E60008C892343CC8923431A430280838B4FF21E
:100E7000FF74234083830B8A038210BD2DE9F04F5A
:100E800085B005460C464FF0000902274FF00008D8
:100E90004FF0010B0026B246A88B4FF240010840EC
:100EA000A88302202884B5F81C90A068022801D1EC
:100EB00000BF38E0A08810B94FF0010B01E04FF0FF
:100EC000020B8D48854200D100E000BF6846FFF765
:100ED000C0FEDDF800A0E088B0F5007F0AD14FEA3F
:100EE0001A2000EB80004000A168B0FBF1F0401D2B
:100EF00086B20BE04FEA4B10BAFBF0F000EB80003B
:100F00004000A168B0FBF1F0401D86B20A20B6FB9C
:100F1000F0F606F00108A6EB0800C0F34F074FF605
:100F2000FF7000EA0828022F01DBFF2F02DD0227F5
:100F30004FF00008E08840EA080038432884A08881
:100F4000A1890843618808432188084340F4006070
:100F500040EA0909A5F81C9005B0BDE8F08F002112
:100F6000018041808180C180018141818181C18175
:100F70000721018270470021018041808180C1806A
:100F80000221816000218181704721B1028842F0F5
:100F90004002028004E002884FF6BF731A400280CC
:100FA000704721B1828B42F48062828304E0828B9D
:100FB0004FF6FF331A408283704730B50024002378
:100FC0000C110125A540ABB21AB185881D4385805F
:100FD00002E085889D43858030BD1AB183880B432C
:100FE000838002E083888B438380704781817047D0
:100FF0000146888970474FF6FF62914204D002880B
:1010000042F48072028004E002884FF6FF631A40C7
:101010000280704721B1828842F00402828004E09D
:1010200082884FF6FB731A408280704702884FF225
:10103000FF731A40028002880A43028070470188C9
:1010400041F480510180704721B1028842F400527E
:10105000028004E002884DF6FF731A400280704758
:1010600002460020012901D0108B00E0908A7047D1
:101070000146088A7047B1F5804F04D1028842F4D6
:101080008042028004E002884BF6FF731A4002801F
:1010900070470246002013890B400BB1012000E08D
:1010A00000207047CA4302817047F0B50246002015
:1010B00000240023002501F00F070126BE40B4B232
:1010C0000B1101269E40B3B2968806EA03051689E5
:1010D000264016B10DB1012000E00020F0BD10B592
:1010E000002201F00F040123A3409AB2D3430381ED
:1010F00010BD00000030014000380040003C0040BE
:1011000010B50446FE48844208D10121C014FFF7FF
:1011100027FE0021E014FFF723FEC4E0B4F1804F66
:1011200008D101210846FFF728FE00210120FFF722
:1011300024FEB8E0F348844208D101210220FFF7E1
:101140001CFE00210220FFF718FEACE0EE488442AE
:1011500008D101210420FFF710FE00210420FFF731
:101160000CFEA0E0E948844208D101210820FFF7E5
:1011700004FE00210820FFF700FE94E0E4488442CA
:1011800008D101211020FFF7F8FD00211020FFF702
:10119000F4FD88E0DF48844208D101212020FFF7D8
:1011A000ECFD00212020FFF7E8FD7CE0DA488442D6
:1011B00008D101214014FFF7D3FD00216014FFF78F
:1011C000CFFD70E0D548844209D10121C804FFF762
:1011D000C7FD00214FF40020FFF7C2FD63E0D048B7
:1011E000844209D101210805FFF7BAFD00214FF41F
:1011F0008010FFF7B5FD56E0CA48844209D10121AD
:101200004805FFF7ADFD00214FF40010FFF7A8FDE2
:1012100049E0C548844208D101214020FFF7ADFDD7
:1012200000214020FFF7A9FD3DE0C048844208D1DD
:1012300001218020FFF7A1FD00218020FFF79DFD07
:1012400031E0BB48844208D101218015FFF795FDAC
:101250000021A015FFF791FD25E0B648844209D191
:1012600001210804FFF77CFD00214FF48030FFF7D7
:1012700077FD18E0B048844209D101214804FFF706
:101280006FFD00214FF40030FFF76AFD0BE0AB4823
:10129000844208D101218804FFF762FD00214FF448
:1012A0008020FFF75DFD10BD00220288944B98421C
:1012B0000ED0994B98420BD0B0F1804F08D0914B93
:1012C000984205D0904B984202D0904B984204D15E
:1012D0004FF68F731A404B881A438D4B984207D0B4
:1012E0008C4B984204D04FF6FF431A40CB881A43E8
:1012F00002808B8883850B880385814B98420BD0B5
:10130000854B984208D08B4B984205D08A4B984227
:1013100002D08A4B984201D10B7A03860123838243
:10132000704770B5002400220023058C4FF6FE762E
:1013300035400584028C8388048B4FF68F752C40D2
:10134000B51E2C400D882C43751E2A400D892A435A
:101350004D882A436A4DA8420BD06F4DA84208D051
:10136000744DA84205D0744DA84202D0734DA842D6
:1013700013D14FF6F7752A404D892A434FF6FB7576
:101380002A408D882A434FF6FF652B404FF6FF55C4
:101390002B408D892B43CD892B4383800483CD88BB
:1013A0008586028470BD70B5002400220023058C60
:1013B0004FF6EF7635400584028C8388048B48F61F
:1013C000FF752C404FF6FF452C400D884FF6FF76F9
:1013D00006EA05252C434FF6DF752A400D8906EAFB
:1013E00005152A434D8806EA05152A43444DA842AF
:1013F00002D0494DA8421DD14FF67F752A404D8934
:101400004FF6FF7606EA05152A434FF6BF752A40C8
:101410008D8806EA05152A434FF6FF352B404FF21B
:10142000FF752B408D8906EA85052B43CD8906EA99
:1014300085052B4383800483CD880587028470BD96
:1014400070B5002400220023058C4FF6FF6635405E
:101450000584028C8388848B4FF68F752C404FF661
:10146000FC752C400D882C434FF6FF552A400D8902
:101470004FF6FF7606EA05252A434D8806EA05253C
:101480002A431F4DA84202D0234DA8421DD14FF23E
:10149000FF752A404D894FF6FF7606EA05252A4357
:1014A0004FF6FF352A408D8806EA05252A434EF679
:1014B000FF752B404DF6FF752B408D8906EA05150B
:1014C0002B43CD8906EA05152B4383808483CD8881
:1014D0008587028470BD70B5002200230024058C2E
:1014E0004EF6FF7635400584038C8488828B48F65F
:1014F000FF752A404FF6FF452A400D8820E0000086
:10150000002C01400004004000080040000C004096
:10151000001000400014004000340140004C014025
:10152000005001400054014000180040001C0040E1
:1015300000200040004001400044014000480140BC
:101540004FF6FF7606EA05252A434DF6FF752B4038
:101550000D8906EA05352B434D8806EA05352B43F0
:10156000FA4DA84202D0FA4DA84208D14BF6FF75B9
:101570002C408D894FF6FF7606EA85152C43848032
:101580008283CD88A0F84050038470BD828B4FF2D7
:10159000FF331A408283828B4FF6FF7303EA0123E5
:1015A0001A4382837047F0B50C461546002200218D
:1015B0000026078C4EF6FF7C07EA0C070784828B17
:1015C000018C4FF6FF7707EA043640F6FF473A40B2
:1015D0004FF6FF7707EA05273A434FF6FF7707EA0A
:1015E00003373A43D94FB8420ED0D94FB8420BD047
:1015F000B0F1804F08D0D74FB84205D0D64FB8428F
:1016000002D0D64FB84206D14DF6FF77394046F4A6
:101610008057394305E047F6FF57394044F4805777
:10162000394382830184F0BD828B4FF6F3731A40F5
:101630008283828B0A4382837047F0B50C4615463D
:10164000002200210026078C4FF6FF6C07EA0C07EA
:101650000784828B018C4FF6FF7707EA04264FF64A
:101660000C773A404FF6FF7707EA03172F433A43C8
:10167000B64FB8420ED0B64FB8420BD0B0F1804F43
:1016800008D0B44FB84205D0B34FB84202D0B34FE0
:10169000B84206D14FF6FF57394046F480773943B8
:1016A00005E04FF2FF57394044F480773943828395
:1016B0000184F0BD028B4FF2FF331A400283028B8C
:1016C0004FF6FF7303EA01231A4302837047F0B514
:1016D0000C461546002200210026078C4FF6EF7CB1
:1016E00007EA0C070784028B018C4FF6FF7707EAA5
:1016F000041640F6FF473A404FF6FF7707EA0337F4
:101700003A434FF6FF7707EA05273A438F4FB8422F
:101710000ED08F4FB8420BD0B0F1804F08D08D4F14
:10172000B84205D08C4FB84202D08C4FB84206D197
:101730004FF6DF77394046F01007394305E04FF6A2
:101740005F77394044F01007394302830184F0BDCC
:10175000028B4FF6F3731A400283028B0A43028313
:101760007047F0B50C46154600220021068C4FF656
:10177000FE773E400684028B018C4FF60C76324099
:101780007E1C06EA03162E433243704EB0420ED042
:101790006F4EB0420BD0B0F1804F08D06D4EB042CA
:1017A00005D06D4EB04202D06C4EB04206D14FF61D
:1017B000FD76314044F00106314305E04FF6F57601
:1017C000314044F00106314302830184F0BD70B51D
:1017D00005460C465D4885420ED05D4885420BD0DB
:1017E000B5F1804F08D05B48854205D05A48854204
:1017F00002D05A48854200D100E000BF208850B98D
:101800002389A28861882846FFF7ABFFE188284634
:10181000FFF79EFF25E0208804280AD12389A288AB
:1018200061882846FFF753FFE1882846FFF742FF0B
:1018300017E0208808280AD12389A28861882846D1
:10184000FFF7FBFEE1882846FFF7EEFE09E023895B
:10185000A28861882846FFF7A6FEE1882846FFF7A0
:1018600095FE70BD2DE9F04105460C460026012786
:10187000608808B9022600E00026A088012801D16E
:10188000022700E001272088A0B92389A288618867
:101890002846FFF766FFE1882846FFF759FF2389AE
:1018A0003A4631462846FFF712FFE1882846FFF7FF
:1018B00001FF13E02389A28861882846FFF707FF0C
:1018C000E1882846FFF7F6FE23893A463146284646
:1018D000FFF747FFE1882846FFF73AFFBDE8F081B0
:1018E0000A884B881A438B881A43CB881A430B8982
:1018F0001A434B891A438B891A43A0F84420704736
:101900004FF6FF71818000210180C180418001720A
:1019100070470021018041808180C1800181418127
:101920008181C18170470021018041800121818036
:101930000021C180018170470021018041808180A8
:10194000C18001814181818170470000002C0140EC
:10195000003401400004004000080040000C00403A
:1019600021B1028842F00102028004E002884FF6B1
:10197000FE731A400280704731B1B0F8442042F43F
:101980000042A0F8442005E0B0F84420C2F30E0263
:10199000A0F8442070471AB183890B43838102E089
:1019A00083898B43838170478182704741EA0203B8
:1019B000A0F8483070471AB183890B43838102E055
:1019C00083898B438381704701894FF6F8721140F8
:1019D000018170470A46002101894FF68F73194033
:1019E00011430181704730B504460D462946204613
:1019F000FFF7F0FF208940F00700208130BD2DE97E
:101A0000F04104460D4616461F46602D06D13B4662
:101A1000012231462046FFF75AFE05E03B460122EF
:101A200031462046FFF79DFE29462046FFF7D2FFAC
:101A3000208940F007002081BDE8F08130B50C46D8
:101A400000210189C9B24FF6FF7505EA0325154348
:101A500025432943018130BD2DE9F04105460E465D
:101A600017469846002443463A4631462846FFF733
:101A7000E5FF2C894FF6F870044044F007044FF658
:101A80008F70044044F070042C81BDE8F081F0B503
:101A900004460D4616461F463B463246294620461A
:101AA000FFF7CCFF208940F480402081F0BD018504
:101AB000828270470A46002101884FF68F731940D1
:101AC000114301807047F0B50C4615461E460021B3
:101AD000002200230189028B038C4FF6F8773940EE
:101AE00021434FF6FC473A4040F201173A434FF684
:101AF000DD773B404FF6FF7707EA06172F433B435E
:101B0000018102830384F0BD0A460021018B4FF658
:101B10008F7319401143018370470A460021018BDE
:101B200048F6FF7319404FF6FF7303EA0223194387
:101B3000018370470A460021818B4FF68F7319404D
:101B40001143818370470A460021818B48F6FF7359
:101B500019404FF6FF7303EA02231943818370474C
:101B600021B1028842F08002028004E002884FF630
:101B70007F731A400280704721B1828842F00402CC
:101B8000828004E082884FF6FB731A40828070479F
:101B900021B1828842F00802828004E082884FF6F8
:101BA000F7731A408280704721B1828842F00102A7
:101BB000828004E082884FF6FE731A40828070476C
:101BC0000A460021018B4FF6F77319401143018338
:101BD00070470A460021018B4FF2FF7319404FF600
:101BE000FF7303EA02231943018370470A46002169
:101BF000818B4FF6F77319401143818370470A4672
:101C00000021818B4FF2FF7319404FF6FF7303EAF7
:101C100002231943818370470A460021018B4FF646
:101C2000FB7319401143018370470A460021018B61
:101C30004FF6FF3319404FF6FF7303EA02231943AF
:101C4000018370470A460021818B4FF6FB731940D0
:101C50001143818370470A460021818B4FF6FF3381
:101C600019404FF6FF7303EA02231943818370473B
:101C70000A460021018B4FF67F73194011430183FF
:101C800070470A460021018BC1F30E014FF6FF7326
:101C900003EA02231943018370470A460021818B1E
:101CA0004FF67F7319401143818370470A46002124
:101CB000818BC1F30E014FF6FF7303EA0223194330
:101CC000818370470A460021018C4FF6FD7319404D
:101CD0001143018470470A460021018C4FF6F773C7
:101CE00019401143018470470A460021018C4FF6C8
:101CF000DF7319404FF6FF7303EA0213194301849F
:101D000070470A460021018C4FF67F7319404FF649
:101D1000FF7303EA02131943018470470A46002146
:101D2000018C4FF6FF5319404FF6FF7303EA02236D
:101D30001943018470470A460021018C4FF2FF735A
:101D400019404FF6FF7303EA0223194301847047D9
:101D50000A460021018C4DF6FF7319404FF6FF73C0
:101D600003EA023319430184704730B5002301248C
:101D70008C40A3B2048C9C430484048C02FA01F5C9
:101D8000ADB22C43048430BD30B5002304248C4014
:101D9000A3B2048C9C430484048C02FA01F5ADB216
:101DA0002C43048430BD70B503460020002418463F
:101DB000183001258D40ACB21D8CA5431D8409B19E
:101DC000082909D100EB6100056825F07005056060
:101DD0000568154305600EE00D1FC5F34E05284448
:101DE000056825F4E045056005684FF6FF7606EACC
:101DF00002263543056070BD21B1028842F002021F
:101E0000028004E002884FF6FD731A40028070479A
:101E100021B1028842F00402028004E002884FF6F9
:101E2000FB731A400280704721B1828842F0800221
:101E3000828004E082884FF67F731A408280704768
:101E400002884FF6F7731A40028002880A43028024
:101E5000704782884FF68F731A40828082880A43C7
:101E60008280704702894FF6F8731A400281028916
:101E70000A430281704702894FF67F731A4002813C
:101E800002890A43028170478184704781857047C7
:101E9000818670470187704781877047A0F840109E
:101EA000704702884FF6FF431A40028002880A43B7
:101EB000028070470146888E70470146088F704740
:101EC0000146888F70470146B1F8400070470146CF
:101ED000888C70470146088D704702460020138A9F
:101EE0000B400BB1012000E000207047CA43028282
:101EF000704730B50246002000230024158A05EA09
:101F00000103958905EA010413B10CB1012000E039
:101F1000002030BDCA4302827047000010B504465D
:101F2000FB48844209D101218803FEF719FF0021F3
:101F30004FF48040FEF714FF32E0F648844209D1A6
:101F400001214804FEF719FF00214FF40030FEF78D
:101F500014FF25E0F048844209D101218804FEF7EE
:101F60000CFF00214FF48020FEF707FF18E0EB483C
:101F7000844209D10121C804FEF7FFFE00214FF47D
:101F80000020FEF7FAFE0BE0E548844208D101216B
:101F90000805FEF7F2FE00214FF48010FEF7EDFE7B
:101FA00010BD2DE9F04786B005460E460024A24636
:101FB00000BFA1460027B08900B100BF2F462C8A80
:101FC0004CF6FF700440F08804432C82AC894EF636
:101FD000F3100440B08831890843718908430443F1
:101FE000AC81AC8A4FF6FF400440B0890443AC8218
:101FF00001A8FEF72EFEC648874202D1DDF810A0E8
:1020000001E0DDF80CA0A88900F4004040B10AEB23
:10201000CA0000EB0A1031684900B0FBF1F807E094
:102020000AEBCA0000EB0A1031688900B0FBF1F836
:102030006420B8FBF0F004012009642101FB108941
:10204000A88900F4004040B1322000EBC900B0FB89
:10205000F1F000F00700044308E0322000EB091023
:102060006421B0FBF1F000F00F0004432C8106B0B6
:10207000BDE8F0874FF41651016000218180C180D6
:1020800001810C21418100218181704710B50246F8
:102090000020108A4FF2FF0318400B884C8823431E
:1020A0008C882343CC8823431843108210BD002121
:1020B000018041808180C180704721B1828942F4D2
:1020C0000052828104E082894DF6FF731A408281BA
:1020D0007047F0B50346002400260025002040F696
:1020E0006A17B94200D100BF1846C1F3421401F08B
:1020F0001F06012707FA06F5012C01D10C3004E078
:10210000022C01D1103000E014301AB107682F43BF
:10211000076002E00768AF430760F0BD1AB1838A29
:102120000B43838202E0838A8B4383827047028A57
:102130004FF6F0731A400282028A0A430282704705
:1021400082894FF2FF731A40828182890A43828119
:10215000704721B1828942F00202828104E08289C3
:102160004FF6FD731A4082817047028A4FF6DF7383
:102170001A400282028A0A430282704721B1028A0F
:1021800042F48042028204E0028A4BF6FF731A4056
:1021900002827047C1F30802828070470146888836
:1021A000C0F308007047818941F0010181817047C7
:1021B000028BD2B20283028B42EA01220283704771
:1021C000028B02F47F420283028B0A430283704730
:1021D00021B1828A42F02002828204E0828A4FF694
:1021E000DF731A408282704721B1828A42F0100266
:1021F000828204E0828A4FF6EF731A40828270472F
:1022000021B1828A42F00802828204E0828A4FF67B
:10221000F7731A408282704721B1828942F40042EA
:10222000828103E08289C2F30E028281704721B16C
:10223000828A42F40062828204E0828A4FF2FF7353
:102240001A4082827047828A4FF6FB731A4082825C
:10225000828A0A438282704721B1828A42F0020256
:10226000828204E0828A4FF6FD731A4082827047B0
:1022700002460020B1F5007F00D100BF13880B405B
:102280000BB1012000E00020704701F40072B2F5AC
:10229000007F00D100BFCA430280704770B502467C
:1022A000002400230025002040F66A16B14200D128
:1022B00000BFC1F3421501F01F03012606FA03F324
:1022C000012D02D19689334006E0022D02D1168AF3
:1022D000334001E0968A33400C12012606FA04F4DA
:1022E0001688344013B10CB1012000E0002070BD0D
:1022F00010B50022002340F66A14A14200D100BFAD
:102300000A1201249440A3B2DC43048010BD0000F3
:10231000003801400044004000480040004C0040AC
:102320000050004000F0D5FA482000F05DFD4FF469
:10233000A060FDF749FF00F02EF900F0DFFD00F08E
:1023400049FB01F05FFF00F008FE00F09FFD00F088
:10235000B1FD01F001FE01F048FC00F005FD02F0C6
:10236000B4F902F0AFF800F0B5FD0020174908609D
:102370004FF47A735A100121084602F0E8F94FF43D
:102380007A735A100121022002F0E1F94FF47A73B6
:102390005A100121032002F0DAF94FF47A735A102F
:1023A0000121042002F0D3F94FF47A735A1001216D
:1023B000052002F0CCF94FF47A735A10012106205F
:1023C00002F0C5F901E000F0E0FEFCE7A481214243
:1023D00010B5002831DB07282FDCB1F5FA7F2CDBA4
:1023E00040F6C413994228DC142A00DA142247F27A
:1023F00030539A4200DD1A4606280BD140F6C4132A
:10240000994201DD194610E0B1F5FA7F0DDA4FF47B
:10241000FA710AE040F69803994201DD194604E09A
:10242000B1F5617F01DA4FF46171DB4B23F81010D5
:10243000DA4B1A800123DA4C237010BD70B5D848EE
:102440000078002848D00020D5490870D34800887B
:10245000142190FBF1F0D3490880002437E0CE48E6
:1024600030F81400D04931F81410884213DDCA49FD
:1024700031F81410CC4A32F81420881A02F020FBEC
:10248000CA4941F82400084650F8240080F0004072
:1024900041F824000BE0C44931F81410BE4A32F868
:1024A0001420881A02F00CFBC04941F82400BD48F2
:1024B000008802F01DFB0546BC4951F8240029465E
:1024C00002F020FAB94941F82400601CC4B2082C7B
:1024D000C5DB0120B6490870B548007860B3B14843
:1024E0000088401EAF490880002423E0AD480088E2
:1024F00048B9A94830F81400AB4921F8140000206D
:10250000AB49087014E0A748008802F0F1FA0646CB
:10251000A64850F82410304602F0FEFA054602F0B4
:10252000B3FA9D4931F8141008449F4921F814006A
:10253000601CC4B2082CD9DB70BD08B59D48C069C9
:1025400040F002009B49C86142F20F709A4908802E
:102550004720091F088098482038008840F0010073
:1025600095492039088094482C38008840F00100B3
:1025700091492C3908801D208DF8000000208DF82D
:10258000010003208DF8020001208DF80300684649
:10259000FDF71FFE08BD08B5FFF7CFFF012108209A
:1025A000FEF7C4FB4FF49070ADF8000010208DF8DA
:1025B000030003208DF8020069468048FEF7FAF810
:1025C00001211020FEF7B2FB4FF4E050ADF80000FF
:1025D00010208DF8030003208DF80200694678482A
:1025E000FEF7E8F801212020FEF7A0FB0420ADF85B
:1025F000000010208DF8030003208DF802006946CA
:102600007048FEF7D7F808BD411C6B4A118070472F
:1026100000B569481C38008800F00100002870D01F
:102620006948008811280ED2DFE800F0A7090E17CC
:102630001F2B34414A575F6C748089969B005A491E
:102640000888FFF7E1FF98E05749098840F6C4126F
:10265000511A88B2FFF7D8FF8FE001205B4908606C
:1026600051494888FFF7D0FF87E0002057490860AC
:102670004D49498840F6C412511A88B2FFF7C4FF89
:102680007BE001205149091D086047498888FFF710
:10269000BBFF72E000204D49091D0860424989884E
:1026A00040F6C412511A88B2FFF7AEFF65E0012070
:1026B0004649083108603C49C888FFF7A5FF5CE03F
:1026C00000204249083108603749C98840F6C412E1
:1026D000511A88B2FFF798FF4FE001203C4908608B
:1026E00031490889FFF790FF47E00020384908602A
:1026F0002D49098940F6C412511A88B2FFF784FFA8
:102700003BE040E001203349086027494889FFF752
:102710007BFF32E000202F4908602349498940F6B9
:10272000C412511A88B2FFF76FFF26E00120294931
:102730000C3108601C498889FFF766FF1DE0002006
:1027400024490C3108601849898940F6C412511A8D
:1027500088B2FFF759FF10E01349C889FFF754FF0B
:102760000BE01149C98940F6C412511A88B2FFF72B
:102770004BFF00201449088000BF00BF12480088AA
:10278000401C114908800C481C38008820F00100CA
:1027900009491C39088000BD2400002036000020B3
:1027A000340000203800002014000020DC0000204D
:1027B0003A000020001002402C040040000C0140B0
:1027C00000100140001401403C000020A8012242FA
:1027D0008881224294812142704700BFFEE700BFFA
:1027E000FEE700BFFEE700BFFEE770477047704797
:1027F000704700000CB50020019000906C48006804
:1028000040F480306A49086000BF6948006800F4FD
:10281000003000900198401C0190009818B9019870
:10282000B0F5A06FF1D16248006800F4003010B13B
:102830000120009001E0002000900098012843D181
:102840005C48006840F010005A490860084600687B
:1028500020F0030008600846006840F002000860AD
:1028600053484068524948600846406848600846F6
:10287000406840F4806048600846406820F47C105E
:1028800048600846406840F4E81048600846006820
:1028900040F08070086000BF4548006800F000709C
:1028A0000028F9D04248406820F0030040494860C1
:1028B0000846406840F00200486000BF3C4840685D
:1028C00000F00C000828F9D10CBD10B5FFF792FFFD
:1028D00010BD10B53648006840F00100344908606A
:1028E0000846406834490840314948600846006855
:1028F000324908402E4908600846006820F48020CC
:1029000008600846406820F4FE0048604FF41F004D
:102910008860FFF7DAFF4FF000602949086010BDBA
:1029200010B5002100200022214B5B6803F00C0150
:1029300021B1042906D0082928D107E0214B224CD7
:10294000236027E01F4B204C236023E0184B5B687B
:1029500003F47010164B5B6803F48032022303EB20
:10296000904022B9194B4343174C23600DE0104BA4
:102970005B6803F4003323B1144B4343124C2360D0
:1029800003E0104B4343104C236003E00D4B0E4C0F
:10299000236000BF00BF064B5B68C3F303130C4CFE
:1029A000E15C094B1B68CB40074C236010BD000065
:1029B00000100240002002400000FFF8FFFFF6FE7A
:1029C00008ED00E000127A004000002000093D0000
:1029D0004400002000B587B0012144F20500FEF755
:1029E000A5F94FF40070ADF8140003208DF816001F
:1029F00018208DF8170005A9EE48FDF7DBFE4FF40F
:102A00008060ADF8140048208DF8170005A9E9484A
:102A1000FDF7D0FE4FF4165001900020ADF80800ED
:102A2000ADF80A00ADF80C00ADF810000C20ADF8C0
:102A30000E0001A9E048FFF7B4FA012240F2255147
:102A4000DD48FFF746FB0121DB48FFF736FB252079
:102A50008DF8180001208DF8190000208DF81A005B
:102A600001208DF81B0006A8FDF7B3FB07B000BDE1
:102A700000BFD149098801F040010029F9D0CE49B1
:102A8000091D088000BFCC49098801F040010029D8
:102A9000F9D0704710B50246002012E000BFC64BC7
:102AA0001B8803F04003002BF9D0135CC24C241D9B
:102AB000238000BFC04B1B8803F04003002BF9D0DC
:102AC000401C8842EAD310BD70B540F22551BA4887
:102AD000FFF7E4FB00285CD0B748FFF75FFBC5B207
:102AE000B6480078C8B9552D10D1B5480078401CBB
:102AF000B34908700846007802280ED100200870FB
:102B00000120AE490870AF49087006E00020AB49CB
:102B10000870AC490870AA490870A84800780028D5
:102B200037D0A948A74909784554A6480078022813
:102B30000ED1A548A3490978405CA449087008460D
:102B40000078022804DA0220087000209B490870EF
:102B50009C480078401C9B490870084601789B48B7
:102B60000078801C814214D19948007870B9012006
:102B700097490870002405E09348005D9549085581
:102B8000601CC4B28F4800788442F5DB00208B497A
:102B9000087070BDFCB504460D461646022700BFFE
:102BA00000BF00BF00BF55208DF800008DF8010068
:102BB0008DF802708DF803408DF804508DF8056093
:102BC000B81CC1B26846FFF765FFFCBD80480078BD
:102BD00020B100207E490870012070470020FCE7EA
:102BE0002DE9F04104460F46154698466DB900267A
:102BF00009E04FF4005101EB843101EB063001F0A4
:102C000022F8701CC6B2042EF3DB4FF4005101EB26
:102C1000843101EB85104246402101F057F8681CD1
:102C2000B84211D16C4A4FF48071080101F029F8C3
:102C3000694807554FF4805001F005F8664A4FF493
:102C40008071080101F042F8BDE8F08110B5002460
:102C500004E0002060490855601C84B2FF2CF8DDB8
:102C60004FF4805000F0EFFF5B4A4FF48071080191
:102C700001F02CF810BD2DE9F05FFFF7A7FF002849
:102C800070D05648006808B9012000E00020534980
:102C900008605048C778072F4BD004DC032F07D0BB
:102CA000062F5ED131E0082F46D0192F59D14BE0C5
:102CB000484890F8049040794649897900EB012012
:102CC00085B200241EE004EB4400C01D414911F808
:102CD000008004EB44000830095C04EB4400093038
:102CE0003C4A105C01EB002086B22A463146404641
:102CF000FFF76EFB2B4632460121404601F027FDCF
:102D0000601C84B24C45DEDB2BE0324890F804B006
:102D100040793049897900EB01201FFA80FA0022BE
:102D200011460620FFF736FF5146584600F0FAFDDF
:102D300017E000F02CFE14E0FFF788FF0022114698
:102D40000820FFF727FF0CE0224B9A795979187970
:102D5000DB1DFFF745FF002211461920FFF71AFF80
:102D600000BF00BFBDE8F09F1FB51DA103C9CDE99D
:102D700002016A460521002000F083FF002414E0D0
:102D800002A8005D1DF8041088420CD000201349F1
:102D9000086000F058FF02AA0521002000F096FF0D
:102DA000FFF754FF03E0601CC4B2052CE8DB00BF52
:102DB0001FBD0000000801400038014056000020FF
:102DC000550000205700002000020020580000207D
:102DD00054000020FC00002004030020A4812142B4
:102DE0004C4F424F5400000010B504466FF00400F1
:102DF000FDF739FAE11704EB5171C1F3C701F64A47
:102E000011701046007800EB4001C1EBC0104FF686
:102E1000FF7101EAC000F149088010BD0146EF4A88
:102E200012884A434FF0E0235A6100229A6101223E
:102E30001A6100BF4FF0E022106900F001021AB1E0
:102E400000F48032002AF5D000224FF0E0231A610E
:102E50009A6170470146E04A12784A434FF0E023F6
:102E60005A6100229A6101221A6100BF4FF0E022EC
:102E7000106900F001021AB100F48032002AF5D086
:102E800000224FF0E0231A619A61704708B50121D2
:102E90000820FDF74BFF4FF40070ADF80000102044
:102EA0008DF8030003208DF802006946CC48FDF739
:102EB00081FC08BD08B501211020FDF737FF012076
:102EC000ADF8000048208DF803006946C548FDF7BD
:102ED00071FC08BD08B501211020FDF727FF4FF454
:102EE0000050ADF8000010208DF8030003208DF88D
:102EF00002006946BB48FDF75DFC08BD1FB5012116
:102F00000846FDF720FF0920ADF8040040F2CF206D
:102F1000ADF800000020ADF80600ADF802006946EB
:102F20004FF08040FEF7C0F9012241218807FEF7EB
:102F300032FD01218807FEF713FD1C208DF80C00DF
:102F400002208DF80D0003208DF80E0001208DF871
:102F50000F0003A8FDF73DF91FBD00B587B00121A3
:102F60004FF40470FDF7E2FE4FF40040FDF742FE1F
:102F70000820ADF8040000208DF8070001A9994849
:102F8000FDF718FC9848FDF78DF9002002908DF8A8
:102F90000C008DF80D004FF4602004900020059087
:102FA00001208DF8180002A98F48FDF7A2F9012130
:102FB0008D48FDF7CAF98C48FDF7E9F900BF8A484A
:102FC000FDF7EAF90028FAD18748FDF7EFF900BFCD
:102FD0008548FDF7F0F90028FAD101218248FDF774
:102FE000F4F907B000BD10B50446072301222146BD
:102FF0007D48FDF716FA01217B48FDF7E6F900BF91
:1030000002217948FDF752FB0028F9D07648FDF7F8
:103010006FFA10BD70B50024002505E00D20FFF704
:10302000E2FF0444681CC5B2082DF7DBE40840F653
:10303000AB106043840A6D490C8070BD6B480088FA
:1030400070476B48007888B16A480068401C69493D
:10305000086002280DD3002008606748006808B99E
:10306000012000E000206449086002E0002062497D
:1030700008606248007828B900205D4908706049FE
:1030800008601FE05D48007801281BD15C4800689B
:10309000401C5B4908600846006841F2883188425C
:1030A00003D20120524908700CE05548006842F2F2
:1030B0001071884203D200204D49087002E00020C0
:1030C0004F490860704710B501218807FEF711FFCE
:1030D000002836D001218807FEF71CFFFFF7B1FF5B
:1030E00048480068401C474908600A2829D3002046
:1030F000086045480068401C434908604348008810
:10310000401C42490880FFF799FF41F27C518842F8
:103110000EDA3F480088401C3D4908800846008878
:1031200041F2883188420CDD01203449087008E002
:103130000020374908803748007810B900202F490F
:10314000087010BD10B530480068334909688842DE
:103150001AD9314800680A302F4908602F480068A2
:10316000401C2E4908600846007800F0010008B9AC
:10317000FFF764F9294800683221B0FBF1F201FB46
:10318000120008B9FFF746FF10BD70B5FFF7DAFF70
:10319000FFF771FD01F01CF900F04BFC1648B43844
:1031A0000068C0B93C20FFF739FE1348B438006806
:1031B00028B91B480078401C194908703FE018489E
:1031C000007814282EDD00201549087000216420A5
:1031D00000F0A8FB70BD32E066000020680000200F
:1031E000000C014000100140002401406400002058
:1031F0007D00002080000020B401224260000020F9
:1032000084000020880000205C0000206200002074
:103210008C0000206A000020900000209400002014
:103220009A0000200020F9490870F9480068C0435E
:10323000F849C1F8A4010121642000F073FBF648AD
:1032400000882D283CDD0020F349088000F02AFF8B
:103250000446F248007801287DD100F05BFF054666
:10326000042000F07DFF05405DB30020EB490870AD
:10327000EB4908700120EB490870EB490870E448FD
:103280000068C043E349C1F8A4015020FFF7C6FD20
:103290000020E44908703220FFF7C0FD0120E14919
:1032A0000870E14908705020FFF7B8FD0020DD49A3
:1032B0000870D848D0F8A401C043D649C1F8A40189
:1032C0001DE34CB1012000F025FF28B9D04800686B
:1032D000C043D049C1F8A401201F0D2828D2DFE83F
:1032E00000F0F24A286A07ACF18BF0CCEFF3ED0066
:1032F000CE488089143081B232220620FFF768F868
:10330000CB4880890A3000B2C94988810846B0F9A3
:103310000C0040F6C411884202DD0846C449888189
:10332000C348808982B232230121062001F00FFABE
:10333000CCE1BE488089143881B232220620FFF7E2
:1033400047F8BB4880890A3800B2B94988810846E5
:10335000B0F90C0000E0BCE1B0F5FA7F02DA4FF4FE
:10336000FA708881B248808982B232230121062016
:1033700001F0EDF9AAE1AD484089143881B232225A
:103380000520FFF725F8AA4840890A3800B2A84965
:1033900048810846B0F90A00B0F5617F02DA4FF4BF
:1033A00061704881A248408982B232230121052000
:1033B00001F0CDF98AE19D484089143081B2322272
:1033C0000520FFF705F89A4840890A3000B298496D
:1033D00048810846B0F90A0040F69801884202DDAB
:1033E0000846934948819248408982B2322301219C
:1033F000052001F0ACF969E18C488088143081B275
:1034000032220220FEF7E4FF894880880A3000B2A9
:10341000874988800846B0F9040040F69801884240
:1034200002DD0846824988808148808882B2322342
:103430000121022001F08BF948E17C488088143892
:1034400081B232220220FEF7C3FF794880880A3811
:1034500000B2774988800846B0F90400B0F5617F72
:1034600002DA4FF4617088807148808882B232231A
:103470000121022001F06BF928E16C480089143029
:1034800081B232220420FEF7A3FF694800890A3086
:1034900000B2674908810846B0F9080040F6980173
:1034A000884202DD0846624908816148008982B28B
:1034B00032230121042001F04AF907E145E003E04D
:1034C00022E062E082E0B5E058480089143881B219
:1034D00032220420FEF77CFF554800890A3800B2EA
:1034E000534908810846B0F90800B0F5617F02DA57
:1034F0004FF4617008814E48008982B23223012165
:10350000042001F024F9E1E04848C088143081B279
:1035100032220320FEF75CFF4548C0880A3000B223
:103520004349C8800846B0F9060040F69801884231
:1035300002DD08463E49C8803D48C08882B2322339
:103540000121032001F003F9C0E03848C088143895
:1035500081B232220320FEF73BFF3548C0880A388B
:1035600000B23349C8800846B0F90600B0F5617F63
:1035700002DA4FF46170C8802D48C08882B23223CD
:103580000121032001F0E3F8A0E02848408814302E
:1035900081B232220120FEF71BFF254840880A3005
:1035A00000B2234948800846B0F9020040F698016D
:1035B000884202DD08461E4948801D48408882B284
:1035C00032230121084601F0C2F87FE01748408805
:1035D000143881B232220120FEF7FAFE14484088E6
:1035E0000A3800B2124948800846B0F90200B0F526
:1035F000617F02DA4FF4617048800D48408882B2E2
:1036000032230121084601F0A2F85FE09A00002071
:10361000A481214200802142620000209900002004
:10362000980000206A000020600000202400002094
:103630006C0000204FF47A7240F2DC510120FEF75A
:10364000C7FE4FF47A7240F2DC510220FEF7C0FE52
:103650004FF47A7240F2DC510320FEF7B9FE4FF4CA
:103660007A7240F2DC510420FEF7B2FE4FF47A7217
:1036700040F2DC510520FEF7ABFE4FF47A7240F2C7
:10368000DC510620FEF7A4FE01209E49087018E0D8
:103690004FF4FA709C499B4A127821F812000846B0
:1036A0009849097830F8110082B24FF47A730121F9
:1036B0009448007801F04BF892480078401C9149FA
:1036C0000870904800780728E2DB00BF00BF0024A4
:1036D00015E1012000F01EFDF0B3042000F040FDD4
:1036E000D0B301208949087000F051F900208849C1
:1036F00008704FF47A7240F2DC510120FEF768FE48
:103700004FF47A7240F2DC510220FEF761FE4FF472
:103710007A7240F2DC510320FEF75AFE4FF47A72BF
:1037200040F2DC510420FEF753FE4FF47A7240F26F
:10373000DC510520FEF74CFE4FF47A7240F2DC516A
:103740000620FEF745FE0120724908707249087094
:1037500072480068C04300E01EE07149C1F8A4014E
:103760005020FFF75BFB00206A4908703220FFF70A
:1037700055FB012067490870674908705020FFF722
:103780004DFB0020634908706548D0F8A401C04390
:103790006349C1F8A401B2E064B15D48007848B95A
:1037A000012000F0B7FC28B95C480068C0435C49C0
:1037B000C1F8A401112C10D2DFE804F0099F9F9FEB
:1037C000101B3C26318994737E4768525D00504837
:1037D000007810B100204E4908708EE04C48007807
:1037E00018B90121002000F09DF801204849087017
:1037F00083E04748007818B90121084600F092F8A4
:1038000001204349087078E04148007818B9012147
:10381000022000F087F801203D4908706DE03C4827
:10382000007818B90121032000F07CF80120384904
:10383000087062E03648007818B90121042000F0D1
:1038400071F801203249087057E03148007818B902
:103850000121052000F066F801202D4908704CE098
:103860002B48007818B90121062000F05BF80120F0
:103870002749087041E02648007818B901210B203B
:1038800000F050F801202249087036E02048007806
:1038900018B901210C2000F045F801201C490870DE
:1038A0002BE01B48007818B901210D2000F03AF8F0
:1038B00001201749087020E01548007818B9012147
:1038C0000E2000F02FF801201149087015E0104873
:1038D000007818B901210F2000F024F801200C49CC
:1038E00008700AE00A48007818B90121102000F099
:1038F00019F801200649087000BF00BF002400BF6E
:1039000070BD00007C0000206C00002099000020A9
:10391000980000206A00002060000020A48121425D
:103920000080214238B504460D4604F580506A46B1
:10393000012100F0A6F99DF80000002826DD9DF881
:1039400000006849087068480078A04209D054B95E
:1039500000206649087066490860012065490870C2
:1039600001E0654805606148007878B95E480470F8
:10397000614805600020614908705D4908600120C8
:103980005A4908705E4800685E49086038BD0020EA
:1039900056490870564908600120564908700020B1
:1039A0005649087070472DE9F04790B005460E461D
:1039B00000244FF4005101EB853101EB86106A467B
:1039C000402100F05EF99DF800909DF801009DF8FF
:1039D000021000EB0127B9F1080F05DDFFF7D7FF53
:1039E000002010B0BDE8F08700241EE004EB440086
:1039F000C01C1DF800A004EB4400001D1DF80010C1
:103A000004EB4400401D1DF8000001EB00201FFAEC
:103A100080F8BAB241465046FEF7DAFCBBB24246E5
:103A20000121504600F093FE641C4C45DED3B8B231
:103A3000D7E710B52D480078002845D02D480078EC
:103A400001280ED100202B4908702C480178264807
:103A50000078FFF7A8FF2B49096808442949086046
:103A60003EE02748006827490968884238D301208A
:103A70002049087021480078401CC0B21F490870D6
:103A80001849097888422BDB00201C4908701A4825
:103A9000006828B316480068401C1549086016499C
:103AA000096888421CD3002211460720FFF772F8EC
:103AB00000200E4908700C480078642810D10121BC
:103AC0006520FFF72FFF0BE000200C490870084924
:103AD0000860012007490870094800680949086022
:103AE00010BD0000AD0000209D0000209C000020C3
:103AF000A4000020AC000020A0000020AE000020A8
:103B00005C000020A800002070B50546002405E0F8
:103B1000601CC4B2C82C01DD002070BD02217F48AA
:103B2000FDF7B7FA0028F3D029467C48FDF75EFA86
:103B3000002400BF01217948FDF7ABFA0028F9D035
:103B4000601CC4B2C82C01DD0020E6E77348FDF715
:103B50004FFAC0B2E1E708B510217148FCF7D7FE73
:103B600001210420FDF7E2F81020ADF800008DF8E7
:103B7000030003208DF8020069466948FCF71AFE2D
:103B8000012141F20400FDF7D1F8E020ADF800007A
:103B900018208DF8030003208DF802006946604864
:103BA000FCF708FEE0215E48FCF7B1FE00205D490D
:103BB00008804FF482704880002088800220C880EE
:103BC0000120088140024881082088810020C881A6
:103BD000072008825148FDF733F901214F48FDF7CE
:103BE000D4F9FF20FFF790FF08BD10B5FFF7B3FF32
:103BF0009620FFF713F910BD10B5002400204A49A4
:103C000008600520FFF780FFFF20FFF77DFF0446D7
:103C100001204649C1F89001204610BD10B500BFF3
:103C2000FFF7EAFF00F001000028F9D110BD10B540
:103C300000203D4908600620FFF766FF01203B4950
:103C4000C1F8900110BD10B50446FFF7F0FFFFF773
:103C5000E5FF0020344908602020FFF755FFC4F33A
:103C60000740FFF751FFC4F30720FFF74DFFE0B215
:103C7000FFF74AFF01202D49C1F89001FFF7CEFF61
:103C800010BD2DE9F04104460E4617460020264996
:103C900008600320FFF738FFC4F30740FFF734FF45
:103CA000C4F30720FFF730FFE0B2FFF72DFF002538
:103CB00005E0FF20FFF728FF7855681C85B2B54264
:103CC000F7D3012018490860BDE8F0812DE9F041E3
:103CD00004460E461746FFF7AAFF00201249086067
:103CE0000220FFF711FFC4F30740FFF70DFFC4F3F5
:103CF0000720FFF709FFE0B2FFF706FF002504E009
:103D0000785DFFF701FF681C85B2B542F8D301204A
:103D100005490860FFF782FFBDE8F08100300140EF
:103D200000080140040400209001214200002142CB
:103D300010B504462046FFF78DF810BD38B504468F
:103D4000012000900020FA494870012000902CE0EA
:103D5000BDF80000204018B10120F649086002E0DB
:103D60000020F44908600A20FFF7E2FF0020F24932
:103D700008602820FFF7DCFF0120F049C1F894011A
:103D8000EC485438006830B1E9484078BDF800107C
:103D90000843E74948700A20FFF7CAFFBDF8000052
:103DA0004FF6FF7101EA40000090BDF80000FF28C7
:103DB000CEDD38BD10B50020DE49091F0860322075
:103DC000FFF7B6FF0120FFF7B9FF4320FFF7B6FF6B
:103DD0000020FFF7B3FF0020FFF7B0FF5A20FFF7E6
:103DE000ADFF5A20FFF7AAFF5A20FFF7A7FF5A207E
:103DF000FFF7A4FF5A20FFF7A1FF0120D049C1F827
:103E000080013220FFF794FF10BD10B50020C94992
:103E1000091F08603220FFF78BFF0120FFF78EFF9C
:103E20004D20FFF78BFF0020FFF788FF0020FFF7F2
:103E300085FF0120FFF782FF0120C149C1F8800101
:103E40003220FFF775FF10BD10B50020B949091FDA
:103E500008603220FFF76CFF0120FFF76FFF44205E
:103E6000FFF76CFF0020FFF769FF0120FFF766FFF7
:103E70000320FFF763FF0020FFF760FF0020FFF73C
:103E80005DFF0020FFF75AFF0020FFF757FF0120DA
:103E9000AB49C1F880013220FFF74AFF10BD10B5D1
:103EA0000020A449091F08603220FFF741FF0120CC
:103EB000FFF744FF4320FFF741FF0020FFF73EFFDD
:103EC0000120FFF73BFF0020FFF738FF0020FFF73E
:103ED00035FF0020FFF732FF0020FFF72FFF002003
:103EE000FFF72CFF01209649C1F880013220FFF72F
:103EF0001FFF10BD10B500208E49091F0860322039
:103F0000FFF716FF0120FFF719FF4220FFF716FF0A
:103F10000020FFF713FF0020FFF710FF0020FFF73E
:103F20000DFF01208649C1F880013220FFF700FF14
:103F300010BD10B56420FEF771FFFFF7DBFFFFF740
:103F4000D9FFFFF7D7FFFFF7AAFFFFF77DFFFFF7C6
:103F50005CFFFFF72FFF10BD08B501210820FCF71B
:103F6000E5FE4FF48050ADF8000048208DF80300C6
:103F700069467448FCF71EFC01210820FCF7D6FEB8
:103F80000320ADF8000010208DF8030003208DF809
:103F9000020069466B48FCF70DFC01211020FCF77C
:103FA000C5FE2020ADF8000010208DF8030003208E
:103FB0008DF8020069466448FCF7FCFBFFF7B9FF87
:103FC00008BD10B500205B49091F08605F490878EB
:103FD000FFF7B4FE5D494878FFF7B0FE012058496D
:103FE000C1F8800152484078732801D1002010BDEB
:103FF0000120FCE71CB500204E49091F08600A207B
:10400000FFF796FE51490878FFF798FE4F49487828
:10401000FFF794FE0220019031E00120009022E0A1
:104020000020454908603220FFF782FE0120434905
:10403000C1F894013F485438006850B13C489DF89D
:104040000410405CBDF80010084339499DF8042075
:1040500088541420FFF76CFEBDF800004FF6FF7186
:1040600001EA40000090BDF80000FF28D8DD2820BC
:10407000FFF75EFE9DF80400401CC0B201909DF861
:1040800004000928C9DB01202A49091F08601CBD5A
:10409000002004E00021264A1154411CC8B209281E
:1040A000F8DB704710B5FFF7F3FFFFF7A3FF2848D1
:1040B0000088284908801E48C0781D49097940EACF
:1040C00001202349088000240FE0234810F8140041
:1040D000401E012101FA00F01D490988084010B96D
:1040E000601CC0B210BD601CC4B2102CEDDB0020FF
:1040F000F8E70146481E0122824091B21548008827
:10410000134A128850400840002801DD0120704702
:104110000020FCE70146481E0122824091B20C4873
:10412000008821EA0000002818DD01207047000007
:104130001604002084812142940122420000224280
:1041400000802142000C014000100140B20000201C
:10415000B0000020D4000020B400002000207047F0
:1041600000B503461846FFF7C4FF28B11846FFF70D
:10417000D1FF08B1012000BD0020FCE700B50346D7
:104180001846FFF7B6FF28B11846FFF7C3FF08B976
:10419000012000BD0020FCE701461748405C704745
:1041A00070B505460C460020144908603220FFF720
:1041B000BFFD0120FFF7C2FD4220FFF7BFFD002039
:1041C000FFF7BCFD2846FFF7B9FD2046FFF7B6FD17
:1041D0000020FFF7B3FD0020FFF7B0FD0020FFF740
:1041E000ADFD0020FFF7AAFD01200549C1F88001BF
:1041F0003220FFF79DFD70BD160400208081214212
:104200000080214200B587B001218804FCF79BFDA6
:1042100001210920FCF78AFD4FF48060ADF81400FD
:1042200003208DF8160018208DF8170005A9D34833
:10423000FCF7C0FA4FF40060ADF8140048208DF888
:10424000170005A9CD48FCF7B5FA4FF416500190B8
:104250000020ADF80800ADF80A00ADF80C00ADF88C
:1042600010000C20ADF80E0001A9C548FDF799FE1D
:10427000012240F22551C248FDF72BFF0121C04821
:10428000FDF71BFF27208DF8180001208DF819007D
:1042900002208DF81A0001208DF81B0006A8FBF7FC
:1042A00098FF07B000BD10B540F22551B448FDF7A6
:1042B000F5FF00284CD0B248FDF770FFC4B2B148FA
:1042C0000078C8B9552C10D1AF480078401CAE49D1
:1042D00008700846007802280ED1002008700120DE
:1042E000A8490870A949087006E00020A54908708F
:1042F000A6490870A4490870A248007840B3A448B1
:10430000A24909784454A148007802280ED1A04857
:104310009E490978405C9F49087008460078022849
:1043200004DA022008700020964908709748007847
:10433000401C964908700846017896480078801C11
:10434000814205D101209449087000208D490870F0
:1043500010BD10B50246002012E000BF884B1B883C
:1043600003F04003002BF9D0135C854C241D2380FF
:1043700000BF834B1B8803F04003002BF9D0401C87
:104380008842EAD310BD8448007820B100208249D9
:104390000870012070470020FCE7FCB504460D467C
:1043A0001646022700BF00BF00BF00BF55208DF892
:1043B00000008DF801008DF802708DF803408DF833
:1043C00004508DF80560B91C6846FFF7C2FFFCBDBC
:1043D0002DE9F05FFFF7D7FF002865D06F48006830
:1043E00008B9012000E000206C4908606848C578E1
:1043F000072D40D004DC032D07D0062D53D12BE030
:10440000082D3BD0192D4ED140E061480779407905
:104410005F49897900EB01201FFA80F8002418E039
:1044200004EB4400C01D5A490E5C04EB4400083004
:10443000095C04EB44000930554A105C01EB002094
:104440001FFA80F9424649463046FDF7C1FF601C1D
:1044500084B2BC42E4DB26E04D4890F804B04079D9
:104460004B49897900EB01201FFA80FA51465846E2
:10447000FFF758FA17E0FFF78AFA14E0FEF7E6FBB9
:10448000002211460820FFF788FF0CE0404B9A7984
:1044900059791879DB1DFEF7A3FB0022114619207C
:1044A000FFF77BFF00BF00BFBDE8F09F014606E0BD
:1044B00042F6E06200E0521E002AFCD1491E0029AB
:1044C000F6D1704710B5A4B035A2D2E90131106819
:1044D000D268CDE9213123922090302234A114A852
:1044E00000F0A1F92C223EA109A800F09CF947A3F5
:1044F000D3E90020D3E9021306AC0BC4059247A30D
:104500000FCB01AC0FC420A800F06EF90446214681
:1045100020A8FFF71EFF4FF47A70FFF7C7FF14A81B
:1045200000F062F90446214614A8FFF712FF41F299
:104530008830FFF7BBFF09A800F056F90446214672
:1045400009A8FFF706FF4FF47A70FFF7AFFF05A841
:1045500000F04AF90446214605A8FFF7FAFE4FF499
:104560007A70FFF7A3FF01A800F03EF90446214648
:1045700001A8FFF7EEFE24B010BD0000000C0140C2
:1045800000480040D8000020D7000020D9000020BB
:104590001F040020DA000020D6000020A481214260
:1045A00041542B43574D4F44453D310D0A00000007
:1045B00041542B43574A41503D224445534B544F9D
:1045C000502D39494F374446502032313735222C4F
:1045D000227474747477777777220D0A00000000D4
:1045E00041542B43495053544152543D225443505B
:1045F000222C223139322E3136382E3133372E31BA
:10460000222C383038300D0A0000000041542B4372
:1046100049504D4F44453D310D0A000041542B4354
:10462000495053454E440D0A0000000000B587B0C4
:1046300001214804FCF787FB01210520FCF776FBEC
:104640000420ADF8140003208DF8160018208DF812
:10465000170005A96048FCF7ADF80820ADF8140074
:1046600048208DF8170005A95B48FCF7A3F84FF424
:10467000E13001900020ADF80800ADF80A00ADF877
:104680000C00ADF810000C20ADF80E0001A9534845
:10469000FDF787FC012240F225515048FDF719FD36
:1046A00001214E48FDF709FD27208DF81800012053
:1046B0008DF8190002208DF81A0001208DF81B00DA
:1046C00006A8FBF786FD07B000BD08B5FFF7AEFFF3
:1046D00001210420FCF72AFB0320ADF80000102084
:1046E0008DF8030003208DF8020069463A48FCF774
:1046F00061F800203A49086001203A49C1F8840174
:1047000008BD10B50246002012E000BF334B1B88E5
:1047100003F04003002BF9D0135C304C241D2380A0
:1047200000BF2E4B1B8803F04003002BF9D0401C28
:104730008842EAD310BD10B540F225512748FDF755
:10474000ADFD18B12548FDF729FDC4B210BD2DE916
:10475000F04785B081460E461746984604254FF02F
:10476000000A012E01D1072500BF00BF55208DF89A
:1047700000008DF801008DF802908DF803508DF83F
:104780000460F8B28DF8050038128DF8060008F0C4
:10479000FF008DF807004FEA28208DF8080002245A
:1047A00003E01DF804008244641C681C8442F8D9AC
:1047B0006FEA0A00C1B2A81C0DF8001000200849D9
:1047C000086001200749C1F88401E91C6846FFF729
:1047D00098FF05B0BDE8F0870008014000440040A4
:1047E000800121420000214210B5431C02E010F874
:1047F000011B71B18107FAD14FF0013202C88C1A46
:104800008C4314EAC211F9D0C01A0A0603D0C01EA4
:1048100010BDC01A10BD0A0401D0801E10BD0902CF
:10482000FCD0401E10BD10B5203AC0F00B80B1E89E
:104830001850203AA0E81850B1E81850A0E81850D5
:10484000BFF4F5AF5FEA027C24BFB1E81850A0E8DE
:10485000185044BF18C918C0BDE810405FEA827CF8
:1048600024BF51F8043B40F8043B08BF7047D2070F
:1048700028BF31F8023B48BF11F8012B28BF20F8B0
:10488000023B48BF00F8012B7047704770477047E4
:10489000754600F02BF8AE4605006946534620F0F9
:1048A0000700854618B020B5FBF77CFCBDE820402A
:1048B0004FF000064FF000074FF000084FF0000BDC
:1048C00021F00701AC46ACE8C009ACE8C009ACE88F
:1048D000C009ACE8C0098D46704710B50446AFF377
:1048E00000802046BDE81040FBF747BC00487047F9
:1048F0002405002001491820ABBEFEE72600020077
:10490000704700004FF47F0C1CEAD0121EBF1CEA57
:10491000D11392EA0C0F93EA0C0F00F0858090EA15
:10492000010F48BF42F4807240F4000C41F40000D3
:104930002CF07F4120F07F4000B58142A2EB0302C2
:104940000FF2081CACEB504EC0F100009EF800E0E6
:104950004FEA4E0E00FB0EFC38BF49004FEA2C1CFC
:1049600002F5FA020CFB0EF34FEACE1E4FEA112CB1
:104970004FEAC1210EEB635E42EB22420EFB0CFCC0
:104980004FEA1C5300FB03114FEA112C4FEA01318F
:104990000EFB0CFC4FEADC4C00FB0C11C14228BFA3
:1049A00009184CEB03335DF804EB10EB410143EBCA
:1049B000C250B2F57C0F38BF704729D512F0F00F06
:1049C0001CBF00F1C04000F00040704700818283AE
:1049D0008485868788898B8C8D8E8F91929395960E
:1049E00097999A9C9D9FA0A2A3A5A7A8AAACAEB098
:1049F000B2B3B5B7B9BCBEC0C2C5C7C9CCCED1D49D
:104A0000D7D9DCDFE2E6E9ECF0F3F7FAFE000000CC
:104A10004FEA400C0CF1807CBCF17E4F28BF704700
:104A2000B0F1C04000F03FB990EA010F0CEAD11399
:104A300048BF42F48072624538BF634507D213F421
:104A40007F0F16D080EA010000F00040704710B5DB
:104A500000F0E3F8097EFC3E00F005B880EA0100B2
:104A600000F00040704780EA010000F0004000F0D4
:104A70001AB912F47F0F04BF0248704780EA0100A0
:104A800000F011B90000C07F41000B0ED3F19E026F
:104A900008D950F400034FEA032323FA02F048BF79
:104AA0004042704710B500F0B8F800BF499224802A
:104AB000002070476FF0004282EA2000704700003B
:104AC00010F0004148BF4042B0FA80F310FA03F200
:104AD000C3F19D030BD051EAC35101EB12205306E1
:104AE00038BF704700F1010008BF20F00100704797
:104AF000B0FA80F310FA03F2C3F19D030AD0D9058E
:104B000001EB1220530638BF704700F1010008BFC7
:104B100020F00100704700004FF47F0C1CEAD01217
:104B20001EBF1CEAD11392EA0C0F93EA0C0F00F09F
:104B3000478090EA010F48BF42F480724FF0004C6A
:104B40004CEA00204CEA012102EB0302A0FB011316
:104B5000A2F50002002918BF43F001035B0028BF43
:104B60004FEA330342EB22425FEA132C4CEBC25074
:104B70002EBFBCEB436FB2F57C0F70474FEA036C5E
:104B8000BCF1004F08BF20F00100B2F57C0F38BF28
:104B900070470BD582F0FF0212F5803FC8BF704707
:104BA00000F1C040D8BF00F00040704700F5000C95
:104BB0005FEA4C0C48BF7047B0F1C04000F073B8DA
:104BC00090EA010F0CEAD11348BF42F480726245AB
:104BD00038BF634504D280EA010000F0004070470E
:104BE00010B500F01AF800BF8900013E00F007B8C8
:104BF00000F009B85FEA410C5FEA1C6C08D080EA5B
:104C0000010000F050B85FEA400C5FEA1C6CF6D17E
:104C10004FF00040A0F5800070470EF1020E2EF01C
:104C2000030E5EF8044B244204D44FEA4102B2F171
:104C30007F4F11D84FEA4003B3F17F4F0CD80ED10C
:104C40004FEAD07CB2F17F4F0CEB4C0C0CF1020C14
:104C500008BF4CEBD17C04E04FF0080C01E04FEAB8
:104C6000D17C0CEB4C0324FA03F404F00704B4F1F8
:104C7000040C06D20EEB840CBDE810404CF0010C85
:104C80006047DFE80CF0070802024FF00040A0F593
:104C9000800010BD0846420018BFD2F1807288BF64
:104CA00000F0004010BDFF2141EAD050C005704720
:104CB000D04C000800000020DC00000028010008A3
:104CC000AC4D0008DC000020AC0A000044010008E4
:104CD00000000000010203040102030406070809A2
:104CE00002040608DC05DC05DC05DC05DC05DC056A
:104CF000DC05DC05DC05DC05DC05DC05DC05DC05AC
:104D0000DC05DC050000D007000000000100000009
:104D100000A24A0400000000000000000102030499
:104D20000607080900000000020000000000000063
:104D3000000000000000000000000000F401F40189
:104D4000F401F401F401F401F401F40100000000A5
:104D50000000000000000000000000000000000053
:104D60000A00000000000000000000000000000039
:104D70000100000000000000000000000100000031
:104D800000000142010002000300040005000600CB
:104D90000700080009000A000B000C000D000E00BF
:0C4DA0000F001000FFFF000000000200E8
:04000005080000ED02
:00000001FF
